{
  "contractName": "MultiSignatureWallet",
  "abi": [
    {
      "constant": true,
      "inputs": [
        {
          "name": "",
          "type": "address"
        }
      ],
      "name": "isOwner",
      "outputs": [
        {
          "name": "",
          "type": "bool"
        }
      ],
      "payable": false,
      "stateMutability": "view",
      "type": "function"
    },
    {
      "constant": true,
      "inputs": [
        {
          "name": "",
          "type": "uint256"
        },
        {
          "name": "",
          "type": "address"
        }
      ],
      "name": "confirmations",
      "outputs": [
        {
          "name": "",
          "type": "bool"
        }
      ],
      "payable": false,
      "stateMutability": "view",
      "type": "function"
    },
    {
      "constant": true,
      "inputs": [
        {
          "name": "",
          "type": "uint256"
        }
      ],
      "name": "transactions",
      "outputs": [
        {
          "name": "executed",
          "type": "bool"
        },
        {
          "name": "destination",
          "type": "address"
        },
        {
          "name": "value",
          "type": "uint256"
        },
        {
          "name": "data",
          "type": "bytes"
        }
      ],
      "payable": false,
      "stateMutability": "view",
      "type": "function"
    },
    {
      "constant": true,
      "inputs": [],
      "name": "transactionCount",
      "outputs": [
        {
          "name": "",
          "type": "uint256"
        }
      ],
      "payable": false,
      "stateMutability": "view",
      "type": "function"
    },
    {
      "inputs": [
        {
          "name": "_owners",
          "type": "address[]"
        },
        {
          "name": "_required",
          "type": "uint256"
        }
      ],
      "payable": false,
      "stateMutability": "nonpayable",
      "type": "constructor"
    },
    {
      "payable": true,
      "stateMutability": "payable",
      "type": "fallback"
    },
    {
      "anonymous": false,
      "inputs": [
        {
          "indexed": true,
          "name": "transactionId",
          "type": "uint256"
        }
      ],
      "name": "Submission",
      "type": "event"
    },
    {
      "anonymous": false,
      "inputs": [
        {
          "indexed": true,
          "name": "sender",
          "type": "address"
        },
        {
          "indexed": true,
          "name": "transactionId",
          "type": "uint256"
        }
      ],
      "name": "Confirmation",
      "type": "event"
    },
    {
      "anonymous": false,
      "inputs": [
        {
          "indexed": true,
          "name": "transactionId",
          "type": "uint256"
        }
      ],
      "name": "Execution",
      "type": "event"
    },
    {
      "anonymous": false,
      "inputs": [
        {
          "indexed": true,
          "name": "transactionId",
          "type": "uint256"
        }
      ],
      "name": "ExecutionFailure",
      "type": "event"
    },
    {
      "constant": false,
      "inputs": [
        {
          "name": "destination",
          "type": "address"
        },
        {
          "name": "value",
          "type": "uint256"
        },
        {
          "name": "data",
          "type": "bytes"
        }
      ],
      "name": "submitTransaction",
      "outputs": [
        {
          "name": "transactionId",
          "type": "uint256"
        }
      ],
      "payable": false,
      "stateMutability": "nonpayable",
      "type": "function"
    },
    {
      "constant": false,
      "inputs": [
        {
          "name": "transactionId",
          "type": "uint256"
        }
      ],
      "name": "confirmTransaction",
      "outputs": [],
      "payable": false,
      "stateMutability": "nonpayable",
      "type": "function"
    },
    {
      "constant": false,
      "inputs": [
        {
          "name": "transactionId",
          "type": "uint256"
        }
      ],
      "name": "revokeConfirmation",
      "outputs": [],
      "payable": false,
      "stateMutability": "nonpayable",
      "type": "function"
    },
    {
      "constant": false,
      "inputs": [
        {
          "name": "transactionId",
          "type": "uint256"
        }
      ],
      "name": "executeTransaction",
      "outputs": [],
      "payable": false,
      "stateMutability": "nonpayable",
      "type": "function"
    }
  ],
  "bytecode": "0x608060405234801561001057600080fd5b50604051610dcc380380610dcc83398101806040528101908080518201929190602001805190602001909291905050506000825182818111806100535750600081145b8061005e5750600082145b1561006857600080fd5b600092505b84518310156100f257600160026000878681518110151561008a57fe5b9060200190602002015173ffffffffffffffffffffffffffffffffffffffff1673ffffffffffffffffffffffffffffffffffffffff16815260200190815260200160002060006101000a81548160ff021916908315150217905550828060010193505061006d565b846000908051906020019061010892919061011a565b508360018190555050505050506101e7565b828054828255906000526020600020908101928215610193579160200282015b828111156101925782518260006101000a81548173ffffffffffffffffffffffffffffffffffffffff021916908373ffffffffffffffffffffffffffffffffffffffff1602179055509160200191906001019061013a565b5b5090506101a091906101a4565b5090565b6101e491905b808211156101e057600081816101000a81549073ffffffffffffffffffffffffffffffffffffffff0219169055506001016101aa565b5090565b90565b610bd6806101f66000396000f30060806040526004361061008e576000357c0100000000000000000000000000000000000000000000000000000000900463ffffffff16806320ea8d86146100905780632f54bf6e146100bd5780633411c81c146101185780639ace38c21461017d578063b77bf60014610268578063c01a8c8414610293578063c6427474146102c0578063ee22610b14610367575b005b34801561009c57600080fd5b506100bb60048036038101908080359060200190929190505050610394565b005b3480156100c957600080fd5b506100fe600480360381019080803573ffffffffffffffffffffffffffffffffffffffff169060200190929190505050610397565b604051808215151515815260200191505060405180910390f35b34801561012457600080fd5b5061016360048036038101908080359060200190929190803573ffffffffffffffffffffffffffffffffffffffff1690602001909291905050506103b7565b604051808215151515815260200191505060405180910390f35b34801561018957600080fd5b506101a8600480360381019080803590602001909291905050506103e6565b60405180851515151581526020018473ffffffffffffffffffffffffffffffffffffffff1673ffffffffffffffffffffffffffffffffffffffff16815260200183815260200180602001828103825283818151815260200191508051906020019080838360005b8381101561022a57808201518184015260208101905061020f565b50505050905090810190601f1680156102575780820380516001836020036101000a031916815260200191505b509550505050505060405180910390f35b34801561027457600080fd5b5061027d6104db565b6040518082815260200191505060405180910390f35b34801561029f57600080fd5b506102be600480360381019080803590602001909291905050506104e1565b005b3480156102cc57600080fd5b50610351600480360381019080803573ffffffffffffffffffffffffffffffffffffffff16906020019092919080359060200190929190803590602001908201803590602001908080601f01602080910402602001604051908101604052809392919081815260200183838082843782019150505050505091929192905050506106be565b6040518082815260200191505060405180910390f35b34801561037357600080fd5b5061039260048036038101908080359060200190929190505050610735565b005b50565b60026020528060005260406000206000915054906101000a900460ff1681565b60056020528160005260406000206020528060005260406000206000915091509054906101000a900460ff1681565b60046020528060005260406000206000915090508060000160009054906101000a900460ff16908060000160019054906101000a900473ffffffffffffffffffffffffffffffffffffffff1690806001015490806002018054600181600116156101000203166002900480601f0160208091040260200160405190810160405280929190818152602001828054600181600116156101000203166002900480156104d15780601f106104a6576101008083540402835291602001916104d1565b820191906000526020600020905b8154815290600101906020018083116104b457829003601f168201915b5050505050905084565b60035481565b600260003373ffffffffffffffffffffffffffffffffffffffff1673ffffffffffffffffffffffffffffffffffffffff16815260200190815260200160002060009054906101000a900460ff16151561053957600080fd5b60006004600083815260200190815260200160002060000160019054906101000a900473ffffffffffffffffffffffffffffffffffffffff1673ffffffffffffffffffffffffffffffffffffffff161415151561059557600080fd5b600015156005600083815260200190815260200160002060003373ffffffffffffffffffffffffffffffffffffffff1673ffffffffffffffffffffffffffffffffffffffff16815260200190815260200160002060009054906101000a900460ff16151514151561060557600080fd5b60016005600083815260200190815260200160002060003373ffffffffffffffffffffffffffffffffffffffff1673ffffffffffffffffffffffffffffffffffffffff16815260200190815260200160002060006101000a81548160ff021916908315150217905550803373ffffffffffffffffffffffffffffffffffffffff167f4a504a94899432a9846e1aa406dceb1bcfd538bb839071d49d1e5e23f5be30ef60405160405180910390a36106bb81610735565b50565b6000600260003373ffffffffffffffffffffffffffffffffffffffff1673ffffffffffffffffffffffffffffffffffffffff16815260200190815260200160002060009054906101000a900460ff16151561071857600080fd5b6107238484846108f2565b905061072e816104e1565b9392505050565b60008015156004600084815260200190815260200160002060000160009054906101000a900460ff16151514151561076c57600080fd5b61077582610a1d565b156108ee5760046000838152602001908152602001600020905060018160000160006101000a81548160ff0219169083151502179055508060000160019054906101000a900473ffffffffffffffffffffffffffffffffffffffff1673ffffffffffffffffffffffffffffffffffffffff1681600101548260020160405180828054600181600116156101000203166002900480156108555780601f1061082a57610100808354040283529160200191610855565b820191906000526020600020905b81548152906001019060200180831161083857829003601f168201915b505091505060006040518083038185875af192505050156108a257817f33e13ecb54c3076d8e8bb8c2881800a4d972b792045ffae98fdf46df365fed7560405160405180910390a26108ed565b817f526441bb6c1aba3c9a4a6ca1d6545da9c2333c8c48343ef398eb858d72b7923660405160405180910390a260008160000160006101000a81548160ff0219169083151502179055505b5b5050565b600060035490506080604051908101604052806000151581526020018573ffffffffffffffffffffffffffffffffffffffff168152602001848152602001838152506004600083815260200190815260200160002060008201518160000160006101000a81548160ff02191690831515021790555060208201518160000160016101000a81548173ffffffffffffffffffffffffffffffffffffffff021916908373ffffffffffffffffffffffffffffffffffffffff1602179055506040820151816001015560608201518160020190805190602001906109d4929190610b05565b509050506001600360008282540192505081905550807fc0ba8fe4b176c1714197d43b9cc6bcf797a4a7461c5fe8d0ef6e184ae7601e5160405160405180910390a29392505050565b6000806000809150600090505b600080549050811015610af9576005600085815260200190815260200160002060008083815481101515610a5a57fe5b9060005260206000200160009054906101000a900473ffffffffffffffffffffffffffffffffffffffff1673ffffffffffffffffffffffffffffffffffffffff1673ffffffffffffffffffffffffffffffffffffffff16815260200190815260200160002060009054906101000a900460ff1615610ad9576001820191505b600154821415610aec5760019250610afe565b8080600101915050610a2a565b600092505b5050919050565b828054600181600116156101000203166002900490600052602060002090601f016020900481019282601f10610b4657805160ff1916838001178555610b74565b82800160010185558215610b74579182015b82811115610b73578251825591602001919060010190610b58565b5b509050610b819190610b85565b5090565b610ba791905b80821115610ba3576000816000905550600101610b8b565b5090565b905600a165627a7a723058203a55e07e8fd88d57bc7ca0a60b34ed1a33ea529db9aeeb1c4c3e4fd8e725be620029",
  "source": "pragma solidity ^0.4.15;\n\ncontract MultiSignatureWallet {\n    \n    event Submission(uint indexed transactionId);\n    event Confirmation(address indexed sender, uint indexed transactionId);\n    event Execution(uint indexed transactionId);\n    event ExecutionFailure(uint indexed transactionId);\n\n    struct Transaction {\n        bool executed;\n        address destination;\n        uint value;\n        bytes data;\n    }\n    address[] owners;\n    uint256 required;\n    mapping(address => bool) public isOwner;\n    \n    uint public transactionCount;\n    mapping (uint => Transaction) public transactions;\n    \n    mapping (uint => mapping (address => bool)) public confirmations;\n\n\n    /// @dev Fallback function, which accepts ether when sent to contract\n    function() public payable {}\n\n    /*\n     * Public functions\n     */\n    modifier validRequirement(uint ownerCount, uint _required){\n        if(_required > ownerCount || _required == 0 || ownerCount == 0) {\n            revert();\n         }\n        _;\n    }\n    /// @dev Contract constructor sets initial owners and required number of confirmations.\n    /// @param _owners List of initial owners.\n    /// @param _required Number of required confirmations.\n    constructor(address[] memory  _owners, uint _required) public validRequirement(_owners.length, _required) {\n        for(uint i = 0;i<_owners.length;i++)\n            isOwner[_owners[i]] = true;\n        owners = _owners;\n        required = _required;\n    }\n    /// @dev Allows an owner to submit and confirm a transaction.\n    /// @param destination Transaction target address.\n    /// @param value Transaction ether value.\n    /// @param data Transaction data payload.\n    /// @return Returns transaction ID.\n    function submitTransaction(address destination, uint value, bytes memory data) public returns (uint transactionId) {\n        require(isOwner[msg.sender]);\n        transactionId = addTransaction(destination,value, data);\n        confirmTransaction(transactionId);\n    }\n\n    /// @dev Allows an owner to confirm a transaction.\n    /// @param transactionId Transaction ID.\n    function confirmTransaction(uint transactionId) public {\n        require(isOwner[msg.sender]);\n        require(transactions[transactionId].destination != 0);\n        require(confirmations[transactionId][msg.sender] == false);\n        \n        confirmations[transactionId][msg.sender] = true;\n        Confirmation(msg.sender, transactionId);\n        executeTransaction(transactionId);\n\n    }\n\n    /// @dev Allows an owner to revoke a confirmation for a transaction.\n    /// @param transactionId Transaction ID.\n    function revokeConfirmation(uint transactionId) public {}\n\n    /// @dev Allows anyone to execute a confirmed transaction.\n    /// @param transactionId Transaction ID.\n    function executeTransaction(uint transactionId) public {\n        require(transactions[transactionId].executed == false);\n        if (isConfirmed(transactionId)) {\n            Transaction tx = transactions[transactionId];\n            tx.executed = true;\n            if (tx.destination.call.value(tx.value)(tx.data))\n                Execution(transactionId);\n            else {\n                ExecutionFailure(transactionId);\n                tx.executed = false;\n            }\n        }\n        \n    }\n\n\t\t/*\n\t\t * (Possible) Helper Functions\n\t\t */\n    /// @dev Returns the confirmation status of a transaction.\n    /// @param transactionId Transaction ID.\n    /// @return Confirmation status.\n    function isConfirmed(uint transactionId) internal view returns (bool) {\n        // let It be the First Helper\n        uint count= 0;\n        for(uint i=0;i< owners.length; i++) {\n            if(confirmations[transactionId][owners[i]])\n                count +=1;\n            if(count == required)\n                return true;\n        }\n        return false;\n    }\n\n    /// @dev Adds a new transaction to the transaction mapping, if transaction does not exist yet.\n    /// @param destination Transaction target address.\n    /// @param value Transaction ether value.\n    /// @param data Transaction data payload.\n    /// @return Returns transaction ID.\n    function addTransaction(address destination, uint value, bytes data)\n        internal\n        returns (uint transactionId)\n    {\n        transactionId = transactionCount;\n        transactions[transactionId] = Transaction({\n            destination: destination,\n            value: value,\n            data: data,\n            executed: false\n        });\n        transactionCount += 1;\n        Submission(transactionId);\n    }\n}",
  "sourcePath": "/Users/dibs/Desktop/consensys_doc/multisig-wallet-exercise/contracts/MultiSignatureWallet.sol",
  "compiler": {
    "name": "solc",
    "version": "0.4.24+commit.e67f0147.Emscripten.clang"
  },
  "schemaVersion": "2.0.1",
  "updatedAt": "2018-11-29T20:48:46.579Z"
}